:0300000002018F6B
:0C018F00787FE4F6D8FD7581110201D6DE
:1000060012039612032E12030BE510700612034715
:100016000200D420B12612036B20B10C050FE50FA8
:10002600C394074003E4F50FE511C39432500A2048
:10003600B10712036B051180EFE4F51130B003022E
:1000460000D412036B20B0727408250FF8067408EA
:10005600250FF8E6540FD394094004740626F67467
:1000660008250FF8E6C394604008E50F9402500295
:10007600E4F67408250FF8E6C394244007E50FB4A8
:100086000202E4F67408250FF8E6C394324007E549
:100096000FB40302E4F67408250FF8E6C394134080
:1000A60007E50FB40402E4F67408250FF8E6C394D6
:1000B600074007E50FB405027601E511C3943250F7
:1000C6000A20B00712036B051180EFE4F511120048
:0400D600DA02000F3B
:1000DA007FC0120378E50AC4540F2430FF1203824A
:1000EA00E50A540F2430FF1203827F2D120382E5A2
:1000FA0009C4540F2430FF120382E509540F243037
:10010A00FF1203827F2D120382E508C4540F2430A4
:10011A00FF120382E508540F2430FF1203827F8006
:10012A001203787F321203827F30120382E50EC4F3
:10013A00540F2430FF120382E50E540F2430FF12AD
:10014A0003827F2D120382E50CC4540F2430FF1260
:10015A000382E50C540F2430FF1203827F2D120311
:10016A0082E50BC4540F2430FF120382E50B540FAF
:10017A002430FF1203827F8D120378E50D54072481
:05018A0030FF020382BA
:07039600D288D2A8D2AF22E9
:0300030002026591
:10026500C0E0C0F0C083C082C0D075D000C000C05F
:1002750001C002C003C004C005C006C00712036B5D
:1002850020B2096310FF750F0012030BD007D006CB
:10029500D005D004D003D002D001D000D0D0D08278
:0702A500D083D0F0D0E0325D
:0C036B007F017E267D82DDFEDEFADFF6DB
:010377002263
:1002E100C2A58F807F017E001202F2D2A77F057E18
:0102F100000C
:1002F200D3EF9400EE9400400F7DC77C01DCFEDD5D
:08030200FAEF1F70EB1E80E80A
:01030A0022D0
:0A037800C2A7C2A61202E1C2A7222A
:0A038200C2A7D2A61202E1C2A72210
:10032E007F381203787F0C1203787F061203787FD2
:09033E00011203787F80020378AC
:0E035D0081838587898B8D80828486888A8C37
:09038C0007080000120101021330
:1002AC00C2B500C2B600D2B500E4FEEF1392B4EFB3
:1002BC00C313FFD2B600C2B6000EBE08EEE4FEEDCC
:1002CC001392B4EDC313FDD2B600C2B6000EBE0835
:0402DC00EEC2B500B9
:0102E00022FB
:10021B00C2B500C2B600D2B500E4FDEF1392B4EF45
:10022B00C313FFD2B600C2B6000DBD08EE00E4FD4D
:10023B00A2B4E433FFC43333335480FCEEC3134C0A
:10024B00FED2B600C2B6000DBD08E5C2B500D2B6EF
:09025B0000C2B400D2B400AF06E9
:010264002277
:10030B00E4FD7F8E1202ACE4FCEC90036493FF746B
:10031B00082CF8E6FD1202AC0CBC07ED7D807F8E3D
:03032B000202AC1F
:10034700E4FBEB90035D93FF12021B74082BF8A6E6
:05035700070BBB07EDE0
:01035C00227E
:10019B00020006E493A3F8E493A34003F68001F274
:1001AB0008DFF48029E493A3F85407240CC8C33365
:1001BB00C4540F4420C8834004F456800146F6DF34
:1001CB00E4800B010204081020408090038CE47E35
:1001DB00019360BCA3FF543F30E509541FFEE49329
:1001EB00A360010ECF54C025E060A840B8E493A3F0
:1001FB00FAE493A3F8E493A3C8C582C8CAC583CA1B
:10020B00F0A3C8C582C8CAC583CADFE9DEE780BED2
:010395000067
:00000001FF
